:100000000C9458000C9480000C9480000C94800098
:100010000C9480000C9480000C9480000C94800060
:100020000C9480000C9480000C9480000C94800050
:100030000C9480000C9480000C9480000C94800040
:100040000C94DC030C9480000C94AA030C9484039D
:100050000C9480000C9480000C9480000C94800020
:100060000C9426040C948000000000002500280059
:100070002B00040404040404040402020202020229
:10008000030303030303010204081020408001025C
:1000900004081020010204081020000000080002DB
:1000A00001000003040700000000000000004505F7
:1000B00011241FBECFEFD8E0DEBFCDBF11E0A0E01E
:1000C000B1E0E2EAFDE002C005900D92AA33B1076B
:1000D000D9F722E0AAE3B1E001C01D92AC3AB20721
:1000E000E1F710E0C8E5D0E004C02197FE010E94CE
:1000F000C906C735D107C9F70E948D050C94CF06F4
:100100000C94000090E0FC01E656FF4F2491FC01A6
:10011000EA57FF4F3491FC01EE58FF4FE491EE2374
:10012000B1F0222339F02330E9F090F4213001F1CD
:10013000223011F1F0E0EE0FFF1FE859FF4FA591BB
:10014000B4918FB7F894EC913E2B3C938FBF0895F8
:100150002730A9F02830C9F0243061F78091800061
:100160008F7D03C0809180008F7780938000E2CFE5
:1001700084B58F7784BDDECF84B58F7DFBCF809132
:10018000B0008F778093B000D5CF8091B0008F7D85
:10019000F9CF08950895AF92BF92CF92DF92EF9278
:1001A000FF920F931F93CF93DF936C017B018B0121
:1001B000040F151FEB015E01AE18BF08C017D10771
:1001C00059F06991D601ED91FC910190F081E02DFB
:1001D000C6010995892B79F7C501DF91CF911F9150
:1001E0000F91FF90EF90DF90CF90BF90AF90089568
:1001F000FC01538D448D252F30E0842F90E0821B2D
:10020000930B541710F0CF96089501970895FC01B1
:10021000918D828D981761F0A28DAE0FBF2FB11D09
:100220005D968C91928D9F5F9F73928F90E0089561
:100230008FEF9FEF0895FC01918D828D981731F01B
:10024000828DE80FF11D858D90E008958FEF9FEF6F
:100250000895FC01918D228D892F90E0805C9F4F45
:10026000821B91098F739927089587EF91E00E946F
:10027000290121E0892B09F420E0822F089580E0F4
:1002800090E0892B29F00E94350181110C94000027
:100290000895FC01A48DA80FB92FB11DA35ABF4F1B
:1002A0002C91848D90E001968F739927848FA68975
:1002B000B7892C93A089B1898C91837080648C93C9
:1002C000938D848D981306C00288F389E02D808178
:1002D0008F7D80830895EF92FF920F931F93CF93AA
:1002E000DF93EC0181E0888F9B8D8C8D98131AC071
:1002F000E889F989808185FF15C09FB7F894EE8958
:10030000FF896083E889F9898081837080648083B4
:100310009FBF81E090E0DF91CF911F910F91FF90FF
:10032000EF900895F62E0B8D10E00F5F1F4F0F73A7
:100330001127E02E8C8D8E110CC00FB607FCFACF62
:10034000E889F989808185FFF5CFCE010E944901B6
:10035000F1CFEB8DEC0FFD2FF11DE35AFF4FF08233
:100360009FB7F8940B8FEA89FB8980818062CFCF99
:10037000CF93DF93EC01888D8823B9F0AA89BB89DC
:10038000E889F9898C9185FD03C0808186FD0DC0C7
:100390000FB607FCF7CF8C9185FFF2CF808185FFE8
:1003A000EDCFCE010E944901E9CFDF91CF910895B1
:1003B0003FB7F8948091E8019091E901A091EA019A
:1003C000B091EB0126B5A89B05C02F3F19F001960F
:1003D000A11DB11D3FBFBA2FA92F982F8827BC019F
:1003E000CD01620F711D811D911D42E0660F771FC7
:1003F000881F991F4A95D1F708958F929F92AF92C7
:10040000BF92CF92DF92EF92FF924B015C010E946C
:10041000D8016B017C010E94D8016C197D098E09FD
:100420009F09683E734081059105A8F321E0821A77
:100430009108A108B10888EEC80E83E0D81EE11C1F
:10044000F11C81149104A104B10429F7FF90EF90ED
:10045000DF90CF90BF90AF909F908F9008950895B8
:1004600085ED8093BC008091BC0084FDFCCF109290
:10047000F201089520917A01260F3327331F21328C
:100480003105ECF42091F201FC0190E080E0243091
:1004900069F082E00895A0917A012191AC01465A59
:1004A0005E4FA40FB52FB11D2C930196861798F3BC
:1004B00080917A01680F60937A0180E0089581E06D
:1004C00008950895E091F6018091F501E81730F460
:1004D000F0E0E65CFE4F808190E008958FEF9FEFA3
:1004E00008959091F6018091F5012FEF3FEF981755
:1004F00048F4E92FF0E0E65CFE4F208130E09F5F9A
:100500009093F601C90108958091F5019091F6014B
:10051000891B990B0895CF92DF92EF92FF920F9370
:100520001F93CF93DF937C01CB018A012091C101FE
:10053000222389F0EB016B01C40ED51ECC15DD051D
:1005400069F06991D701ED91FC910190F081E02D66
:10055000C7010995F3CF642F0E943A02C801DF91C9
:10056000CF911F910F91FF90EF90DF90CF90089562
:10057000CF93DF931F92CDB7DEB769832091C1017E
:100580002223F9F02091F301203258F021E030E0ED
:10059000FC013383228390E080E00F90DF91CF91C4
:1005A00008958091F401E82FF0E0EE53FE4F998119
:1005B00090838F5F8093F4018093F30181E090E05A
:1005C000ECCF61E0CE0101960E943A02F7CFCF93C3
:1005D000FC01C48121E02093C101C093E20110928B
:1005E000F4011092F3018385682B84E992E00E9464
:1005F000B8029091F301913208F03FC08091F2016E
:100600008111FCCF82E08093F20181E08093F101BF
:100610008FEF8093C0011092BF019093BE01A2ECB6
:10062000B1E0EEE9F1E080E098132FC010929D0157
:1006300080919D01CC0FC82BC0939D018091F0014A
:10064000813039F51092F00180919D018093BB00BB
:100650008091BC0083FDF8CF85EC8093BC00809135
:10066000F2018230E1F38091C0018F3F31F080913F
:10067000C001803211F08091C0011092F4011092FB
:10068000F3011092C101CF9108952D9121938F5FB5
:10069000CBCF85EEE2CF90E080E008950F931F93DB
:1006A000CF938C01C62F0E94E7026C2F6460C801B3
:1006B0000E94E7026C2F6B7FC8010E94E70283EC67
:1006C00090E00197F1F7CF911F910F9108950F934B
:1006D0001F93CF93DF938C01D62FC42F607F642BA1
:1006E0000E944E0380E1D89FB00111246C2BC801F9
:1006F000DF91CF911F910F910C944E0341E00E9426
:10070000670381E090E008951F920F920FB60F9259
:1007100011242F933F934F935F936F937F938F9306
:100720009F93AF93BF93EF93FF9387EF91E00E9466
:100730004901FF91EF91BF91AF919F918F917F916F
:100740006F915F914F913F912F910F900FBE0F903E
:100750001F9018951F920F920FB60F9211242F938E
:100760008F939F93EF93FF93E0910702F09108021C
:100770008081E0910D02F0910E0282FD1BC09081FC
:10078000809110028F5F8F7320911102821741F0C8
:10079000E0911002F0E0E950FE4F958F8093100237
:1007A000FF91EF919F918F912F910F900FBE0F901E
:1007B0001F9018958081F4CF1F920F920FB60F9261
:1007C00011242F933F938F939F93AF93BF93809167
:1007D000E4019091E501A091E601B091E70130912B
:1007E000E30123E0230F2D3758F50196A11DB11D1C
:1007F0002093E3018093E4019093E501A093E60147
:10080000B093E7018091E8019091E901A091EA019C
:10081000B091EB010196A11DB11D8093E801909369
:10082000E901A093EA01B093EB01BF91AF919F91D1
:100830008F913F912F910F900FBE0F901F901895A1
:1008400026E8230F0296A11DB11DD2CF1F920F9251
:100850000FB60F9211242F933F934F935F936F9393
:100860007F938F939F93AF93BF93EF93FF93809169
:10087000B900887F803609F44AC0F0F5883209F45F
:10088000A7C018F5803109F49BC0B8F4882309F497
:10089000F9C0883009F494C0FF91EF91BF91AF91F6
:1008A0009F918F917F916F915F914F913F912F9188
:1008B0000F900FBE0F901F901895883109F488C0D3
:1008C000803251F78093C00114C0803409F49DC078
:1008D00040F48033B9F38833F9F68093C00185EC96
:1008E000B0C0803509F485C0883509F496C08834D5
:1008F00099F60E943002D0CF883909F48CC038F5BF
:10090000883729F050F4883611F0803729F683E0D3
:100910008093F20110929C0157C0883809F47BC083
:10092000803919F0803809F0B7CF80919C0180326E
:1009300008F071C0E0919C0181E08E0F80939C01D2
:100940008091BB00F0E0E458FE4F80833DC0803BC7
:1009500039F0E0F4803A09F479C0883A09F09CCF84
:1009600084E08093F20110927B0110927A01E09171
:10097000EE01F091EF01099580917A0181110FC08C
:1009800081E080937A0110925A0109C0803C09F4F9
:10099000A6CF883C09F4A3CF883B09F07DCFE09136
:1009A0007B0181E08E0F80937B01F0E0E65AFE4FE1
:1009B00080818093BB0090917B0180917A0129C056
:1009C00080919D018093BB0085EC8093BC0064CF37
:1009D0009091BF018091BE01981758F5E091BF0139
:1009E00081E08E0F8093BF01F0E0E256FE4F8081E0
:1009F000E9CFE091BF0181E08E0F8093BF0180912C
:100A0000BB00F0E0E256FE4F80839091BF018091E1
:100A1000BE019817C8F285E8D8CFE091BF0181E008
:100A20008E0F8093BF018091BB00F0E0E256FE4F35
:100A300080838091F10181115CCF81E08093F0018E
:100A400084EA8093BC001092F20126CF85EC80935B
:100A5000BC001092F20180919C01803230F4E09150
:100A60009C01F0E0E458FE4F108260919C0170E020
:100A7000E091EC01F091ED018CE791E00995109285
:100A80009C010ACF1092C00134CFE7EFF1E013824E
:100A9000128288EE93E0A0E0B0E084839583A68381
:100AA000B78324E031E03183208325EC30E03587C3
:100AB000248724EC30E03787268720EC30E0318B28
:100AC000208B21EC30E0338B228B22EC30E0358B15
:100AD000248B26EC30E0378B268B118E128E138EF2
:100AE000148EE4E9F2E01382128284839583A68354
:100AF000B78386E191E091838083E0EAF2E013829C
:100B0000128288E291E09183808387E2848380E18E
:100B1000818782E0828713860895789484B5826005
:100B200084BD84B5816084BD85B5826085BD85B591
:100B3000816085BD80916E00816080936E0010920F
:100B4000810080918100826080938100809181008A
:100B5000816080938100809180008160809380001B
:100B60008091B10084608093B1008091B000816079
:100B70008093B00080917A00846080937A008091A5
:100B80007A00826080937A0080917A0081608093FD
:100B90007A0080917A00806880937A001092C10078
:100BA000E0910702F091080282E08083E091030265
:100BB000F09104021082E0910502F09106028FECA0
:100BC000808310920F02E0910B02F0910C0286E0FC
:100BD0008083E0910902F0910A0280818061808324
:100BE000E0910902F0910A02808188608083E0919F
:100BF0000902F0910A02808180688083E0910902F5
:100C0000F0910A0280818F7D80831092F60110920C
:100C1000F5011092F4011092F3011092F20181E0BB
:100C20008093F1011092F00182E10E94820083E141
:100C30000E9482008091B9008E7F8093B9008091DC
:100C4000B9008D7F8093B90088E48093B80085E473
:100C50008093BC0089EC90E09093EF018093EE01CB
:100C60008AEC90E09093ED018093EC011092A50244
:100C70008091AA02823018F098E09093A5028093A8
:100C8000A80262E370E080E090E00E94FD016091C4
:100C9000AB0280EA92E00E94E70268EE73E080E037
:100CA00090E00E94FD0160E380EA92E00E944E0322
:100CB000CBE4D6E4CE010197F1F760E380EA92E05D
:100CC0000E944E032197F1F760E380EA92E00E94D0
:100CD0004E0383E592E00197F1F760E280EA92E04B
:100CE0000E944E036091A502606240E080EA92E0BB
:100CF0000E94670384E08093A60240E06CE080EAF3
:100D000092E00E94670340E061E080EA92E00E9486
:100D10006703CBE3DFE1CE010197F1F782E0809337
:100D2000A70240E066E080EA92E00E94670340E0AC
:100D300062E080EA92E00E946703CE010197F1F73A
:100D400088E08093AB0260E080EA92E00E94E702D4
:100D500040E061E080EA92E00E9467032197F1F7AA
:100D600040E060E880EA92E00E94670348E050E0DB
:100D700060E371E080EA92E00E94CB00C0E0D0E046
:100D80002097F1F30E9435018823D1F30E940000DF
:100D9000F7CFEE0FFF1F0590F491E02D0994F89422
:020DA000FFCF83
:100DA200000000006B01CB00F800B8012901070127
:100DB2001B0100000000B8028B024B036102840297
:100DC20071026202000000007E03CB004B032F027F
:0A0DD2004861636B737465720000E2
:00000001FF
